{"abi":[{"type":"constructor","inputs":[{"name":"_votingNftAddress","type":"address","internalType":"address"}],"stateMutability":"nonpayable"},{"type":"function","name":"DEFAULT_ADMIN_ROLE","inputs":[],"outputs":[{"name":"","type":"bytes32","internalType":"bytes32"}],"stateMutability":"view"},{"type":"function","name":"FOUNDER_ROLE","inputs":[],"outputs":[{"name":"","type":"bytes32","internalType":"bytes32"}],"stateMutability":"view"},{"type":"function","name":"WITHDRAWER_ROLE","inputs":[],"outputs":[{"name":"","type":"bytes32","internalType":"bytes32"}],"stateMutability":"view"},{"type":"function","name":"candidates","inputs":[{"name":"","type":"uint256","internalType":"uint256"}],"outputs":[{"name":"name","type":"string","internalType":"string"},{"name":"candidateAddress","type":"address","internalType":"address"},{"name":"voteCount","type":"uint256","internalType":"uint256"}],"stateMutability":"view"},{"type":"function","name":"fundCandidates","inputs":[],"outputs":[],"stateMutability":"payable"},{"type":"function","name":"getCandidate","inputs":[{"name":"_index","type":"uint256","internalType":"uint256"}],"outputs":[{"name":"","type":"string","internalType":"string"},{"name":"","type":"uint256","internalType":"uint256"},{"name":"","type":"address","internalType":"address"}],"stateMutability":"view"},{"type":"function","name":"getRoleAdmin","inputs":[{"name":"role","type":"bytes32","internalType":"bytes32"}],"outputs":[{"name":"","type":"bytes32","internalType":"bytes32"}],"stateMutability":"view"},{"type":"function","name":"getWinner","inputs":[],"outputs":[{"name":"winnerName","type":"string","internalType":"string"},{"name":"winnerVoteCount","type":"uint256","internalType":"uint256"}],"stateMutability":"view"},{"type":"function","name":"grantRole","inputs":[{"name":"role","type":"bytes32","internalType":"bytes32"},{"name":"account","type":"address","internalType":"address"}],"outputs":[],"stateMutability":"nonpayable"},{"type":"function","name":"hasRole","inputs":[{"name":"role","type":"bytes32","internalType":"bytes32"},{"name":"account","type":"address","internalType":"address"}],"outputs":[{"name":"","type":"bool","internalType":"bool"}],"stateMutability":"view"},{"type":"function","name":"registerCandidate","inputs":[{"name":"_name","type":"string","internalType":"string"},{"name":"_candidateAddress","type":"address","internalType":"address"}],"outputs":[],"stateMutability":"nonpayable"},{"type":"function","name":"renounceRole","inputs":[{"name":"role","type":"bytes32","internalType":"bytes32"},{"name":"callerConfirmation","type":"address","internalType":"address"}],"outputs":[],"stateMutability":"nonpayable"},{"type":"function","name":"revokeRole","inputs":[{"name":"role","type":"bytes32","internalType":"bytes32"},{"name":"account","type":"address","internalType":"address"}],"outputs":[],"stateMutability":"nonpayable"},{"type":"function","name":"setWorkflowStatus","inputs":[{"name":"_newStatus","type":"uint8","internalType":"enum SimpleVotingSystem.WorkflowStatus"}],"outputs":[],"stateMutability":"nonpayable"},{"type":"function","name":"supportsInterface","inputs":[{"name":"interfaceId","type":"bytes4","internalType":"bytes4"}],"outputs":[{"name":"","type":"bool","internalType":"bool"}],"stateMutability":"view"},{"type":"function","name":"vote","inputs":[{"name":"_candidateIndex","type":"uint256","internalType":"uint256"}],"outputs":[],"stateMutability":"nonpayable"},{"type":"function","name":"voteStartTime","inputs":[],"outputs":[{"name":"","type":"uint256","internalType":"uint256"}],"stateMutability":"view"},{"type":"function","name":"votingNft","inputs":[],"outputs":[{"name":"","type":"address","internalType":"contract VotingNFT"}],"stateMutability":"view"},{"type":"function","name":"withdraw","inputs":[],"outputs":[],"stateMutability":"nonpayable"},{"type":"function","name":"workflowStatus","inputs":[],"outputs":[{"name":"","type":"uint8","internalType":"enum SimpleVotingSystem.WorkflowStatus"}],"stateMutability":"view"},{"type":"event","name":"RoleAdminChanged","inputs":[{"name":"role","type":"bytes32","indexed":true,"internalType":"bytes32"},{"name":"previousAdminRole","type":"bytes32","indexed":true,"internalType":"bytes32"},{"name":"newAdminRole","type":"bytes32","indexed":true,"internalType":"bytes32"}],"anonymous":false},{"type":"event","name":"RoleGranted","inputs":[{"name":"role","type":"bytes32","indexed":true,"internalType":"bytes32"},{"name":"account","type":"address","indexed":true,"internalType":"address"},{"name":"sender","type":"address","indexed":true,"internalType":"address"}],"anonymous":false},{"type":"event","name":"RoleRevoked","inputs":[{"name":"role","type":"bytes32","indexed":true,"internalType":"bytes32"},{"name":"account","type":"address","indexed":true,"internalType":"address"},{"name":"sender","type":"address","indexed":true,"internalType":"address"}],"anonymous":false},{"type":"error","name":"AccessControlBadConfirmation","inputs":[]},{"type":"error","name":"AccessControlUnauthorizedAccount","inputs":[{"name":"account","type":"address","internalType":"address"},{"name":"neededRole","type":"bytes32","internalType":"bytes32"}]}],"bytecode":{"object":"0x608060405234801561000f575f80fd5b5060405161294638038061294683398181016040528101906100319190610270565b6100435f801b336100b360201b60201c565b508060035f6101000a81548173ffffffffffffffffffffffffffffffffffffffff021916908373ffffffffffffffffffffffffffffffffffffffff1602179055505f60015f6101000a81548160ff021916908360038111156100a8576100a761029b565b5b0217905550506102c8565b5f6100c483836101a860201b60201c565b61019e5760015f808581526020019081526020015f205f015f8473ffffffffffffffffffffffffffffffffffffffff1673ffffffffffffffffffffffffffffffffffffffff1681526020019081526020015f205f6101000a81548160ff02191690831515021790555061013b61020b60201b60201c565b73ffffffffffffffffffffffffffffffffffffffff168273ffffffffffffffffffffffffffffffffffffffff16847f2f8788117e7eff1d82e926ec794901d17c78024a50270940304540a733656f0d60405160405180910390a4600190506101a2565b5f90505b92915050565b5f805f8481526020019081526020015f205f015f8373ffffffffffffffffffffffffffffffffffffffff1673ffffffffffffffffffffffffffffffffffffffff1681526020019081526020015f205f9054906101000a900460ff16905092915050565b5f33905090565b5f80fd5b5f73ffffffffffffffffffffffffffffffffffffffff82169050919050565b5f61023f82610216565b9050919050565b61024f81610235565b8114610259575f80fd5b50565b5f8151905061026a81610246565b92915050565b5f6020828403121561028557610284610212565b5b5f6102928482850161025c565b91505092915050565b7f4e487b71000000000000000000000000000000000000000000000000000000005f52602160045260245ffd5b612671806102d55f395ff3fe60806040526004361061011e575f3560e01c8063577740b11161009f57806391d148541161006357806391d14854146103a7578063a1edffa2146103e3578063a217fddf1461040d578063c1e6f30414610437578063d547741f146104615761011e565b8063577740b1146102f857806376d1f250146103205780637a9b6fb91461032a57806385f438c1146103525780638e7ea5b21461037c5761011e565b80632f2ff15d116100e65780632f2ff15d146102165780633477ee2e1461023e57806335b8e8201461027c57806336568abe146102ba5780633ccfd60b146102e25761011e565b80630121b93f1461012257806301ffc9a71461014a57806306f4f84a1461018657806318024acc146101b0578063248a9ca3146101da575b5f80fd5b34801561012d575f80fd5b50610148600480360381019061014391906116a9565b610489565b005b348015610155575f80fd5b50610170600480360381019061016b9190611729565b610735565b60405161017d919061176e565b60405180910390f35b348015610191575f80fd5b5061019a6107ae565b6040516101a79190611801565b60405180910390f35b3480156101bb575f80fd5b506101c46107d3565b6040516101d19190611829565b60405180910390f35b3480156101e5575f80fd5b5061020060048036038101906101fb9190611875565b6107d9565b60405161020d91906118af565b60405180910390f35b348015610221575f80fd5b5061023c60048036038101906102379190611903565b6107f5565b005b348015610249575f80fd5b50610264600480360381019061025f91906116a9565b610817565b604051610273939291906119c0565b60405180910390f35b348015610287575f80fd5b506102a2600480360381019061029d91906116a9565b6108f1565b6040516102b1939291906119fc565b60405180910390f35b3480156102c5575f80fd5b506102e060048036038101906102db9190611903565b610a5c565b005b3480156102ed575f80fd5b506102f6610ad7565b005b348015610303575f80fd5b5061031e60048036038101906103199190611a5b565b610c6b565b005b610328610d18565b005b348015610335575f80fd5b50610350600480360381019061034b9190611bb2565b610f62565b005b34801561035d575f80fd5b506103666110a8565b60405161037391906118af565b60405180910390f35b348015610387575f80fd5b506103906110cc565b60405161039e929190611c0c565b60405180910390f35b3480156103b2575f80fd5b506103cd60048036038101906103c89190611903565b6112fd565b6040516103da919061176e565b60405180910390f35b3480156103ee575f80fd5b506103f7611360565b6040516104049190611cad565b60405180910390f35b348015610418575f80fd5b50610421611372565b60405161042e91906118af565b60405180910390f35b348015610442575f80fd5b5061044b611378565b60405161045891906118af565b60405180910390f35b34801561046c575f80fd5b5061048760048036038101906104829190611903565b61139c565b005b600280600381111561049e5761049d611c3a565b5b60015f9054906101000a900460ff1660038111156104bf576104be611c3a565b5b146104ff576040517f08c379a00000000000000000000000000000000000000000000000000000000081526004016104f690611d10565b60405180910390fd5b610e1060025461050f9190611d5b565b421015610551576040517f08c379a000000000000000000000000000000000000000000000000000000000815260040161054890611dfe565b60405180910390fd5b5f60035f9054906101000a900473ffffffffffffffffffffffffffffffffffffffff1673ffffffffffffffffffffffffffffffffffffffff166370a08231336040518263ffffffff1660e01b81526004016105ac9190611e1c565b602060405180830381865afa1580156105c7573d5f803e3d5ffd5b505050506040513d601f19601f820116820180604052508101906105eb9190611e49565b1461062b576040517f08c379a000000000000000000000000000000000000000000000000000000000815260040161062290611ee4565b60405180910390fd5b6004805490508210610672576040517f08c379a000000000000000000000000000000000000000000000000000000000815260040161066990611f4c565b60405180910390fd5b6004828154811061068657610685611f6a565b5b905f5260205f2090600302016002015f8154809291906106a590611f97565b919050555060035f9054906101000a900473ffffffffffffffffffffffffffffffffffffffff1673ffffffffffffffffffffffffffffffffffffffff166340d097c3336040518263ffffffff1660e01b81526004016107049190611e1c565b5f604051808303815f87803b15801561071b575f80fd5b505af115801561072d573d5f803e3d5ffd5b505050505050565b5f7f7965db0b000000000000000000000000000000000000000000000000000000007bffffffffffffffffffffffffffffffffffffffffffffffffffffffff1916827bffffffffffffffffffffffffffffffffffffffffffffffffffffffff191614806107a757506107a6826113be565b5b9050919050565b60035f9054906101000a900473ffffffffffffffffffffffffffffffffffffffff1681565b60025481565b5f805f8381526020019081526020015f20600101549050919050565b6107fe826107d9565b61080781611427565b610811838361143b565b50505050565b60048181548110610826575f80fd5b905f5260205f2090600302015f91509050805f0180546108459061200b565b80601f01602080910402602001604051908101604052809291908181526020018280546108719061200b565b80156108bc5780601f10610893576101008083540402835291602001916108bc565b820191905f5260205f20905b81548152906001019060200180831161089f57829003601f168201915b505050505090806001015f9054906101000a900473ffffffffffffffffffffffffffffffffffffffff16908060020154905083565b60605f80600480549050841061093c576040517f08c379a000000000000000000000000000000000000000000000000000000000815260040161093390612085565b60405180910390fd5b600484815481106109505761094f611f6a565b5b905f5260205f2090600302015f016004858154811061097257610971611f6a565b5b905f5260205f209060030201600201546004868154811061099657610995611f6a565b5b905f5260205f2090600302016001015f9054906101000a900473ffffffffffffffffffffffffffffffffffffffff168280546109d19061200b565b80601f01602080910402602001604051908101604052809291908181526020018280546109fd9061200b565b8015610a485780601f10610a1f57610100808354040283529160200191610a48565b820191905f5260205f20905b815481529060010190602001808311610a2b57829003601f168201915b505050505092509250925092509193909250565b610a64611524565b73ffffffffffffffffffffffffffffffffffffffff168173ffffffffffffffffffffffffffffffffffffffff1614610ac8576040517f6697b23200000000000000000000000000000000000000000000000000000000815260040160405180910390fd5b610ad2828261152b565b505050565b7f10dac8c06a04bec0b551627dad28bc00d6516b0caacd1c7b345fcdb5211334e4610b0181611427565b6003806003811115610b1657610b15611c3a565b5b60015f9054906101000a900460ff166003811115610b3757610b36611c3a565b5b14610b77576040517f08c379a0000000000000000000000000000000000000000000000000000000008152600401610b6e90611d10565b60405180910390fd5b5f4790505f8111610bbd576040517f08c379a0000000000000000000000000000000000000000000000000000000008152600401610bb4906120ed565b60405180910390fd5b5f3373ffffffffffffffffffffffffffffffffffffffff1682604051610be290612138565b5f6040518083038185875af1925050503d805f8114610c1c576040519150601f19603f3d011682016040523d82523d5f602084013e610c21565b606091505b5050905080610c65576040517f08c379a0000000000000000000000000000000000000000000000000000000008152600401610c5c90612196565b60405180910390fd5b50505050565b5f801b610c7781611427565b60026003811115610c8b57610c8a611c3a565b5b826003811115610c9e57610c9d611c3a565b5b148015610cde575060026003811115610cba57610cb9611c3a565b5b60015f9054906101000a900460ff166003811115610cdb57610cda611c3a565b5b14155b15610ceb57426002819055505b8160015f6101000a81548160ff02191690836003811115610d0f57610d0e611c3a565b5b02179055505050565b7f7ed687a8f2955bd2ba7ca08227e1e364d132be747f42fb733165f923021b0225610d4281611427565b6001806003811115610d5757610d56611c3a565b5b60015f9054906101000a900460ff166003811115610d7857610d77611c3a565b5b14610db8576040517f08c379a0000000000000000000000000000000000000000000000000000000008152600401610daf90611d10565b60405180910390fd5b5f60048054905011610dff576040517f08c379a0000000000000000000000000000000000000000000000000000000008152600401610df6906121fe565b60405180910390fd5b5f3411610e41576040517f08c379a0000000000000000000000000000000000000000000000000000000008152600401610e3890612266565b60405180910390fd5b5f60048054905034610e5391906122b1565b90505f5b600480549050811015610f5c575f60048281548110610e7957610e78611f6a565b5b905f5260205f2090600302016001015f9054906101000a900473ffffffffffffffffffffffffffffffffffffffff1673ffffffffffffffffffffffffffffffffffffffff1683604051610ecb90612138565b5f6040518083038185875af1925050503d805f8114610f05576040519150601f19603f3d011682016040523d82523d5f602084013e610f0a565b606091505b5050905080610f4e576040517f08c379a0000000000000000000000000000000000000000000000000000000008152600401610f459061232b565b60405180910390fd5b508080600101915050610e57565b50505050565b5f801b610f6e81611427565b5f806003811115610f8257610f81611c3a565b5b60015f9054906101000a900460ff166003811115610fa357610fa2611c3a565b5b14610fe3576040517f08c379a0000000000000000000000000000000000000000000000000000000008152600401610fda90611d10565b60405180910390fd5b600460405180606001604052808681526020018573ffffffffffffffffffffffffffffffffffffffff1681526020015f815250908060018154018082558091505060019003905f5260205f2090600302015f909190919091505f820151815f01908161104f91906124dd565b506020820151816001015f6101000a81548173ffffffffffffffffffffffffffffffffffffffff021916908373ffffffffffffffffffffffffffffffffffffffff16021790555060408201518160020155505050505050565b7f10dac8c06a04bec0b551627dad28bc00d6516b0caacd1c7b345fcdb5211334e481565b60605f6003808111156110e2576110e1611c3a565b5b60015f9054906101000a900460ff16600381111561110357611102611c3a565b5b14611143576040517f08c379a000000000000000000000000000000000000000000000000000000000815260040161113a906125f6565b60405180910390fd5b5f805f805b6004805490508110156111f657836004828154811061116a57611169611f6a565b5b905f5260205f2090600302016002015411156111b1576004818154811061119457611193611f6a565b5b905f5260205f2090600302016002015493508092505f91506111e9565b83600482815481106111c6576111c5611f6a565b5b905f5260205f209060030201600201541480156111e757505f600480549050115b505b8080600101915050611148565b505f60048054905011156112e0576004828154811061121857611217611f6a565b5b905f5260205f2090600302015f016004838154811061123a57611239611f6a565b5b905f5260205f209060030201600201548180546112569061200b565b80601f01602080910402602001604051908101604052809291908181526020018280546112829061200b565b80156112cd5780601f106112a4576101008083540402835291602001916112cd565b820191905f5260205f20905b8154815290600101906020018083116112b057829003601f168201915b50505050509150945094505050506112f9565b5f60405180602001604052805f81525090945094505050505b9091565b5f805f8481526020019081526020015f205f015f8373ffffffffffffffffffffffffffffffffffffffff1673ffffffffffffffffffffffffffffffffffffffff1681526020019081526020015f205f9054906101000a900460ff16905092915050565b60015f9054906101000a900460ff1681565b5f801b81565b7f7ed687a8f2955bd2ba7ca08227e1e364d132be747f42fb733165f923021b022581565b6113a5826107d9565b6113ae81611427565b6113b8838361152b565b50505050565b5f7f01ffc9a7000000000000000000000000000000000000000000000000000000007bffffffffffffffffffffffffffffffffffffffffffffffffffffffff1916827bffffffffffffffffffffffffffffffffffffffffffffffffffffffff1916149050919050565b61143881611433611524565b611614565b50565b5f61144683836112fd565b61151a5760015f808581526020019081526020015f205f015f8473ffffffffffffffffffffffffffffffffffffffff1673ffffffffffffffffffffffffffffffffffffffff1681526020019081526020015f205f6101000a81548160ff0219169083151502179055506114b7611524565b73ffffffffffffffffffffffffffffffffffffffff168273ffffffffffffffffffffffffffffffffffffffff16847f2f8788117e7eff1d82e926ec794901d17c78024a50270940304540a733656f0d60405160405180910390a46001905061151e565b5f90505b92915050565b5f33905090565b5f61153683836112fd565b1561160a575f805f8581526020019081526020015f205f015f8473ffffffffffffffffffffffffffffffffffffffff1673ffffffffffffffffffffffffffffffffffffffff1681526020019081526020015f205f6101000a81548160ff0219169083151502179055506115a7611524565b73ffffffffffffffffffffffffffffffffffffffff168273ffffffffffffffffffffffffffffffffffffffff16847ff6391f5c32d9c69d2a47ea670b442974b53935d1edc7fd64eb21e047a839171b60405160405180910390a46001905061160e565b5f90505b92915050565b61161e82826112fd565b6116615780826040517fe2517d3f000000000000000000000000000000000000000000000000000000008152600401611658929190612614565b60405180910390fd5b5050565b5f604051905090565b5f80fd5b5f80fd5b5f819050919050565b61168881611676565b8114611692575f80fd5b50565b5f813590506116a38161167f565b92915050565b5f602082840312156116be576116bd61166e565b5b5f6116cb84828501611695565b91505092915050565b5f7fffffffff0000000000000000000000000000000000000000000000000000000082169050919050565b611708816116d4565b8114611712575f80fd5b50565b5f81359050611723816116ff565b92915050565b5f6020828403121561173e5761173d61166e565b5b5f61174b84828501611715565b91505092915050565b5f8115159050919050565b61176881611754565b82525050565b5f6020820190506117815f83018461175f565b92915050565b5f73ffffffffffffffffffffffffffffffffffffffff82169050919050565b5f819050919050565b5f6117c96117c46117bf84611787565b6117a6565b611787565b9050919050565b5f6117da826117af565b9050919050565b5f6117eb826117d0565b9050919050565b6117fb816117e1565b82525050565b5f6020820190506118145f8301846117f2565b92915050565b61182381611676565b82525050565b5f60208201905061183c5f83018461181a565b92915050565b5f819050919050565b61185481611842565b811461185e575f80fd5b50565b5f8135905061186f8161184b565b92915050565b5f6020828403121561188a5761188961166e565b5b5f61189784828501611861565b91505092915050565b6118a981611842565b82525050565b5f6020820190506118c25f8301846118a0565b92915050565b5f6118d282611787565b9050919050565b6118e2816118c8565b81146118ec575f80fd5b50565b5f813590506118fd816118d9565b92915050565b5f80604083850312156119195761191861166e565b5b5f61192685828601611861565b9250506020611937858286016118ef565b9150509250929050565b5f81519050919050565b5f82825260208201905092915050565b8281835e5f83830152505050565b5f601f19601f8301169050919050565b5f61198382611941565b61198d818561194b565b935061199d81856020860161195b565b6119a681611969565b840191505092915050565b6119ba816118c8565b82525050565b5f6060820190508181035f8301526119d88186611979565b90506119e760208301856119b1565b6119f4604083018461181a565b949350505050565b5f6060820190508181035f830152611a148186611979565b9050611a23602083018561181a565b611a3060408301846119b1565b949350505050565b60048110611a44575f80fd5b50565b5f81359050611a5581611a38565b92915050565b5f60208284031215611a7057611a6f61166e565b5b5f611a7d84828501611a47565b91505092915050565b5f80fd5b5f80fd5b7f4e487b71000000000000000000000000000000000000000000000000000000005f52604160045260245ffd5b611ac482611969565b810181811067ffffffffffffffff82111715611ae357611ae2611a8e565b5b80604052505050565b5f611af5611665565b9050611b018282611abb565b919050565b5f67ffffffffffffffff821115611b2057611b1f611a8e565b5b611b2982611969565b9050602081019050919050565b828183375f83830152505050565b5f611b56611b5184611b06565b611aec565b905082815260208101848484011115611b7257611b71611a8a565b5b611b7d848285611b36565b509392505050565b5f82601f830112611b9957611b98611a86565b5b8135611ba9848260208601611b44565b91505092915050565b5f8060408385031215611bc857611bc761166e565b5b5f83013567ffffffffffffffff811115611be557611be4611672565b5b611bf185828601611b85565b9250506020611c02858286016118ef565b9150509250929050565b5f6040820190508181035f830152611c248185611979565b9050611c33602083018461181a565b9392505050565b7f4e487b71000000000000000000000000000000000000000000000000000000005f52602160045260245ffd5b60048110611c7857611c77611c3a565b5b50565b5f819050611c8882611c67565b919050565b5f611c9782611c7b565b9050919050565b611ca781611c8d565b82525050565b5f602082019050611cc05f830184611c9e565b92915050565b7f496e76616c696420776f726b666c6f77207374617475730000000000000000005f82015250565b5f611cfa60178361194b565b9150611d0582611cc6565b602082019050919050565b5f6020820190508181035f830152611d2781611cee565b9050919050565b7f4e487b71000000000000000000000000000000000000000000000000000000005f52601160045260245ffd5b5f611d6582611676565b9150611d7083611676565b9250828201905080821115611d8857611d87611d2e565b5b92915050565b7f566f74696e67206861736e277420737461727465642079657420283120686f755f8201527f722064656c617929000000000000000000000000000000000000000000000000602082015250565b5f611de860288361194b565b9150611df382611d8e565b604082019050919050565b5f6020820190508181035f830152611e1581611ddc565b9050919050565b5f602082019050611e2f5f8301846119b1565b92915050565b5f81519050611e438161167f565b92915050565b5f60208284031215611e5e57611e5d61166e565b5b5f611e6b84828501611e35565b91505092915050565b7f596f75206861766520616c726561647920766f74656420284e46542068656c645f8201527f2900000000000000000000000000000000000000000000000000000000000000602082015250565b5f611ece60218361194b565b9150611ed982611e74565b604082019050919050565b5f6020820190508181035f830152611efb81611ec2565b9050919050565b7f496e76616c69642063616e64696461746520696e6465780000000000000000005f82015250565b5f611f3660178361194b565b9150611f4182611f02565b602082019050919050565b5f6020820190508181035f830152611f6381611f2a565b9050919050565b7f4e487b71000000000000000000000000000000000000000000000000000000005f52603260045260245ffd5b5f611fa182611676565b91507fffffffffffffffffffffffffffffffffffffffffffffffffffffffffffffffff8203611fd357611fd2611d2e565b5b600182019050919050565b7f4e487b71000000000000000000000000000000000000000000000000000000005f52602260045260245ffd5b5f600282049050600182168061202257607f821691505b60208210810361203557612034611fde565b5b50919050565b7f496e76616c696420696e646578000000000000000000000000000000000000005f82015250565b5f61206f600d8361194b565b915061207a8261203b565b602082019050919050565b5f6020820190508181035f83015261209c81612063565b9050919050565b7f4e6f2066756e647320746f2077697468647261770000000000000000000000005f82015250565b5f6120d760148361194b565b91506120e2826120a3565b602082019050919050565b5f6020820190508181035f830152612104816120cb565b9050919050565b5f81905092915050565b50565b5f6121235f8361210b565b915061212e82612115565b5f82019050919050565b5f61214282612118565b9150819050919050565b7f5769746864726177206661696c656400000000000000000000000000000000005f82015250565b5f612180600f8361194b565b915061218b8261214c565b602082019050919050565b5f6020820190508181035f8301526121ad81612174565b9050919050565b7f4e6f2063616e6469646174657320746f2066756e6400000000000000000000005f82015250565b5f6121e860158361194b565b91506121f3826121b4565b602082019050919050565b5f6020820190508181035f830152612215816121dc565b9050919050565b7f4e6f2066756e64732073656e74000000000000000000000000000000000000005f82015250565b5f612250600d8361194b565b915061225b8261221c565b602082019050919050565b5f6020820190508181035f83015261227d81612244565b9050919050565b7f4e487b71000000000000000000000000000000000000000000000000000000005f52601260045260245ffd5b5f6122bb82611676565b91506122c683611676565b9250826122d6576122d5612284565b5b828204905092915050565b7f5472616e73666572206661696c656400000000000000000000000000000000005f82015250565b5f612315600f8361194b565b9150612320826122e1565b602082019050919050565b5f6020820190508181035f83015261234281612309565b9050919050565b5f819050815f5260205f209050919050565b5f6020601f8301049050919050565b5f82821b905092915050565b5f600883026123a57fffffffffffffffffffffffffffffffffffffffffffffffffffffffffffffffff8261236a565b6123af868361236a565b95508019841693508086168417925050509392505050565b5f6123e16123dc6123d784611676565b6117a6565b611676565b9050919050565b5f819050919050565b6123fa836123c7565b61240e612406826123e8565b848454612376565b825550505050565b5f90565b612422612416565b61242d8184846123f1565b505050565b5b81811015612450576124455f8261241a565b600181019050612433565b5050565b601f8211156124955761246681612349565b61246f8461235b565b8101602085101561247e578190505b61249261248a8561235b565b830182612432565b50505b505050565b5f82821c905092915050565b5f6124b55f198460080261249a565b1980831691505092915050565b5f6124cd83836124a6565b9150826002028217905092915050565b6124e682611941565b67ffffffffffffffff8111156124ff576124fe611a8e565b5b612509825461200b565b612514828285612454565b5f60209050601f831160018114612545575f8415612533578287015190505b61253d85826124c2565b8655506125a4565b601f19841661255386612349565b5f5b8281101561257a57848901518255600182019150602085019450602081019050612555565b868310156125975784890151612593601f8916826124a6565b8355505b6001600288020188555050505b505050505050565b7f566f74696e67206e6f7420636f6d706c657465640000000000000000000000005f82015250565b5f6125e060148361194b565b91506125eb826125ac565b602082019050919050565b5f6020820190508181035f83015261260d816125d4565b9050919050565b5f6040820190506126275f8301856119b1565b61263460208301846118a0565b939250505056fea2646970667358221220d555c2cea4380534aa6f32f979a4174a99370d062535782eea590011b0c6440164736f6c634300081a0033","linkReferences":{}},"methodIdentifiers":{"DEFAULT_ADMIN_ROLE()":"a217fddf","FOUNDER_ROLE()":"c1e6f304","WITHDRAWER_ROLE()":"85f438c1","candidates(uint256)":"3477ee2e","fundCandidates()":"76d1f250","getCandidate(uint256)":"35b8e820","getRoleAdmin(bytes32)":"248a9ca3","getWinner()":"8e7ea5b2","grantRole(bytes32,address)":"2f2ff15d","hasRole(bytes32,address)":"91d14854","registerCandidate(string,address)":"7a9b6fb9","renounceRole(bytes32,address)":"36568abe","revokeRole(bytes32,address)":"d547741f","setWorkflowStatus(uint8)":"577740b1","supportsInterface(bytes4)":"01ffc9a7","vote(uint256)":"0121b93f","voteStartTime()":"18024acc","votingNft()":"06f4f84a","withdraw()":"3ccfd60b","workflowStatus()":"a1edffa2"},"id":37}